:100000000EC015C014C013C012C011C010C00FC064
:100010000EC00DC00CC00BC00AC009C008C011241E
:100020001FBECFE5D1E0DEBFCDBF03D031C0E8CFEA
:1000300000C007E007BB00E008BB01E008BB1DD023
:10004000000F08BB0FD0000F08BB043016D008BB50
:1000500014D0069508BB06D0069508BB0ED00695B1
:100060000030E7CF18E02DE734E600003A95E9F7D5
:100070002A95D1F71A95B9F7089514E628EC38ECCB
:1000800000003A95E9F72A95D1F71A95B9F708953E
:04009000F894FFCF12
:00000001FF
